{
  "address": "0x8a3693cBd71d77D4341c6a2d088DC03f22EA556a",
  "abi": [
    {
      "inputs": [
        {
          "internalType": "string[]",
          "name": "urls",
          "type": "string[]"
        }
      ],
      "stateMutability": "nonpayable",
      "type": "constructor"
    },
    {
      "inputs": [
        {
          "internalType": "address",
          "name": "sender",
          "type": "address"
        },
        {
          "internalType": "string[]",
          "name": "urls",
          "type": "string[]"
        },
        {
          "internalType": "bytes",
          "name": "callData",
          "type": "bytes"
        },
        {
          "internalType": "bytes4",
          "name": "callbackFunction",
          "type": "bytes4"
        },
        {
          "internalType": "bytes",
          "name": "extraData",
          "type": "bytes"
        }
      ],
      "name": "OffchainLookup",
      "type": "error"
    },
    {
      "anonymous": false,
      "inputs": [
        {
          "indexed": true,
          "internalType": "bytes32",
          "name": "role",
          "type": "bytes32"
        },
        {
          "indexed": true,
          "internalType": "bytes32",
          "name": "previousAdminRole",
          "type": "bytes32"
        },
        {
          "indexed": true,
          "internalType": "bytes32",
          "name": "newAdminRole",
          "type": "bytes32"
        }
      ],
      "name": "RoleAdminChanged",
      "type": "event"
    },
    {
      "anonymous": false,
      "inputs": [
        {
          "indexed": true,
          "internalType": "bytes32",
          "name": "role",
          "type": "bytes32"
        },
        {
          "indexed": true,
          "internalType": "address",
          "name": "account",
          "type": "address"
        },
        {
          "indexed": true,
          "internalType": "address",
          "name": "sender",
          "type": "address"
        }
      ],
      "name": "RoleGranted",
      "type": "event"
    },
    {
      "anonymous": false,
      "inputs": [
        {
          "indexed": true,
          "internalType": "bytes32",
          "name": "role",
          "type": "bytes32"
        },
        {
          "indexed": true,
          "internalType": "address",
          "name": "account",
          "type": "address"
        },
        {
          "indexed": true,
          "internalType": "address",
          "name": "sender",
          "type": "address"
        }
      ],
      "name": "RoleRevoked",
      "type": "event"
    },
    {
      "anonymous": false,
      "inputs": [
        {
          "indexed": true,
          "internalType": "address",
          "name": "owner",
          "type": "address"
        },
        {
          "indexed": true,
          "internalType": "address",
          "name": "authorized",
          "type": "address"
        },
        {
          "indexed": true,
          "internalType": "uint256",
          "name": "length",
          "type": "uint256"
        }
      ],
      "name": "Session",
      "type": "event"
    },
    {
      "inputs": [],
      "name": "ADMIN_ROLE",
      "outputs": [
        {
          "internalType": "bytes32",
          "name": "",
          "type": "bytes32"
        }
      ],
      "stateMutability": "view",
      "type": "function"
    },
    {
      "inputs": [],
      "name": "DEFAULT_ADMIN_ROLE",
      "outputs": [
        {
          "internalType": "bytes32",
          "name": "",
          "type": "bytes32"
        }
      ],
      "stateMutability": "view",
      "type": "function"
    },
    {
      "inputs": [
        {
          "internalType": "address",
          "name": "nftOwner",
          "type": "address"
        },
        {
          "internalType": "uint256",
          "name": "nonce",
          "type": "uint256"
        },
        {
          "internalType": "address",
          "name": "nftContract",
          "type": "address"
        },
        {
          "internalType": "uint256",
          "name": "tokenId",
          "type": "uint256"
        },
        {
          "internalType": "uint256",
          "name": "tokenNonce",
          "type": "uint256"
        }
      ],
      "name": "createMessage",
      "outputs": [
        {
          "internalType": "bytes32",
          "name": "",
          "type": "bytes32"
        }
      ],
      "stateMutability": "pure",
      "type": "function"
    },
    {
      "inputs": [
        {
          "internalType": "address",
          "name": "authorized",
          "type": "address"
        },
        {
          "internalType": "uint256",
          "name": "length",
          "type": "uint256"
        }
      ],
      "name": "createSession",
      "outputs": [],
      "stateMutability": "nonpayable",
      "type": "function"
    },
    {
      "inputs": [
        {
          "components": [
            {
              "internalType": "address",
              "name": "from",
              "type": "address"
            },
            {
              "internalType": "address",
              "name": "authorizer",
              "type": "address"
            },
            {
              "internalType": "address",
              "name": "to",
              "type": "address"
            },
            {
              "internalType": "address",
              "name": "nftContract",
              "type": "address"
            },
            {
              "internalType": "uint256",
              "name": "nftNonce",
              "type": "uint256"
            },
            {
              "internalType": "uint256",
              "name": "tokenId",
              "type": "uint256"
            },
            {
              "internalType": "uint256",
              "name": "value",
              "type": "uint256"
            },
            {
              "internalType": "uint256",
              "name": "gas",
              "type": "uint256"
            },
            {
              "internalType": "uint256",
              "name": "nonce",
              "type": "uint256"
            },
            {
              "internalType": "bytes",
              "name": "data",
              "type": "bytes"
            }
          ],
          "internalType": "struct IForwardRequest.ERC721ForwardRequest",
          "name": "req",
          "type": "tuple"
        },
        {
          "internalType": "bytes",
          "name": "signature",
          "type": "bytes"
        }
      ],
      "name": "execute",
      "outputs": [
        {
          "internalType": "bool",
          "name": "",
          "type": "bool"
        },
        {
          "internalType": "bytes",
          "name": "",
          "type": "bytes"
        }
      ],
      "stateMutability": "payable",
      "type": "function"
    },
    {
      "inputs": [
        {
          "internalType": "bytes",
          "name": "response",
          "type": "bytes"
        },
        {
          "internalType": "bytes",
          "name": "extraData",
          "type": "bytes"
        }
      ],
      "name": "executeWithProof",
      "outputs": [
        {
          "internalType": "bool",
          "name": "",
          "type": "bool"
        },
        {
          "internalType": "bytes",
          "name": "",
          "type": "bytes"
        }
      ],
      "stateMutability": "payable",
      "type": "function"
    },
    {
      "inputs": [],
      "name": "getChainId",
      "outputs": [
        {
          "internalType": "uint256",
          "name": "id",
          "type": "uint256"
        }
      ],
      "stateMutability": "view",
      "type": "function"
    },
    {
      "inputs": [
        {
          "internalType": "address",
          "name": "from",
          "type": "address"
        }
      ],
      "name": "getNonce",
      "outputs": [
        {
          "internalType": "uint256",
          "name": "",
          "type": "uint256"
        }
      ],
      "stateMutability": "view",
      "type": "function"
    },
    {
      "inputs": [
        {
          "internalType": "bytes32",
          "name": "role",
          "type": "bytes32"
        }
      ],
      "name": "getRoleAdmin",
      "outputs": [
        {
          "internalType": "bytes32",
          "name": "",
          "type": "bytes32"
        }
      ],
      "stateMutability": "view",
      "type": "function"
    },
    {
      "inputs": [
        {
          "internalType": "address",
          "name": "authorizer",
          "type": "address"
        }
      ],
      "name": "getSession",
      "outputs": [
        {
          "components": [
            {
              "internalType": "address",
              "name": "authorized",
              "type": "address"
            },
            {
              "internalType": "uint256",
              "name": "expiresAt",
              "type": "uint256"
            }
          ],
          "internalType": "struct IForwardRequest.PlaySession",
          "name": "",
          "type": "tuple"
        }
      ],
      "stateMutability": "view",
      "type": "function"
    },
    {
      "inputs": [
        {
          "internalType": "bytes32",
          "name": "role",
          "type": "bytes32"
        },
        {
          "internalType": "address",
          "name": "account",
          "type": "address"
        }
      ],
      "name": "grantRole",
      "outputs": [],
      "stateMutability": "nonpayable",
      "type": "function"
    },
    {
      "inputs": [
        {
          "internalType": "bytes32",
          "name": "role",
          "type": "bytes32"
        },
        {
          "internalType": "address",
          "name": "account",
          "type": "address"
        }
      ],
      "name": "hasRole",
      "outputs": [
        {
          "internalType": "bool",
          "name": "",
          "type": "bool"
        }
      ],
      "stateMutability": "view",
      "type": "function"
    },
    {
      "inputs": [],
      "name": "invalidateSession",
      "outputs": [],
      "stateMutability": "nonpayable",
      "type": "function"
    },
    {
      "inputs": [],
      "name": "ownershipSigner",
      "outputs": [
        {
          "internalType": "address",
          "name": "",
          "type": "address"
        }
      ],
      "stateMutability": "view",
      "type": "function"
    },
    {
      "inputs": [
        {
          "components": [
            {
              "internalType": "address",
              "name": "from",
              "type": "address"
            },
            {
              "internalType": "address",
              "name": "authorizer",
              "type": "address"
            },
            {
              "internalType": "address",
              "name": "to",
              "type": "address"
            },
            {
              "internalType": "address",
              "name": "nftContract",
              "type": "address"
            },
            {
              "internalType": "uint256",
              "name": "nftNonce",
              "type": "uint256"
            },
            {
              "internalType": "uint256",
              "name": "tokenId",
              "type": "uint256"
            },
            {
              "internalType": "uint256",
              "name": "value",
              "type": "uint256"
            },
            {
              "internalType": "uint256",
              "name": "gas",
              "type": "uint256"
            },
            {
              "internalType": "uint256",
              "name": "nonce",
              "type": "uint256"
            },
            {
              "internalType": "bytes",
              "name": "data",
              "type": "bytes"
            }
          ],
          "internalType": "struct IForwardRequest.ERC721ForwardRequest",
          "name": "req",
          "type": "tuple"
        },
        {
          "internalType": "bytes",
          "name": "signature",
          "type": "bytes"
        }
      ],
      "name": "preflight",
      "outputs": [],
      "stateMutability": "view",
      "type": "function"
    },
    {
      "inputs": [
        {
          "internalType": "bytes32",
          "name": "role",
          "type": "bytes32"
        },
        {
          "internalType": "address",
          "name": "account",
          "type": "address"
        }
      ],
      "name": "renounceRole",
      "outputs": [],
      "stateMutability": "nonpayable",
      "type": "function"
    },
    {
      "inputs": [
        {
          "internalType": "bytes32",
          "name": "role",
          "type": "bytes32"
        },
        {
          "internalType": "address",
          "name": "account",
          "type": "address"
        }
      ],
      "name": "revokeRole",
      "outputs": [],
      "stateMutability": "nonpayable",
      "type": "function"
    },
    {
      "inputs": [
        {
          "internalType": "address",
          "name": "newSigner",
          "type": "address"
        }
      ],
      "name": "setOwnershipSigner",
      "outputs": [],
      "stateMutability": "nonpayable",
      "type": "function"
    },
    {
      "inputs": [
        {
          "internalType": "bytes4",
          "name": "interfaceId",
          "type": "bytes4"
        }
      ],
      "name": "supportsInterface",
      "outputs": [
        {
          "internalType": "bool",
          "name": "",
          "type": "bool"
        }
      ],
      "stateMutability": "view",
      "type": "function"
    },
    {
      "inputs": [
        {
          "internalType": "uint256",
          "name": "",
          "type": "uint256"
        }
      ],
      "name": "urls",
      "outputs": [
        {
          "internalType": "string",
          "name": "",
          "type": "string"
        }
      ],
      "stateMutability": "view",
      "type": "function"
    },
    {
      "inputs": [
        {
          "components": [
            {
              "internalType": "address",
              "name": "from",
              "type": "address"
            },
            {
              "internalType": "address",
              "name": "authorizer",
              "type": "address"
            },
            {
              "internalType": "address",
              "name": "to",
              "type": "address"
            },
            {
              "internalType": "address",
              "name": "nftContract",
              "type": "address"
            },
            {
              "internalType": "uint256",
              "name": "nftNonce",
              "type": "uint256"
            },
            {
              "internalType": "uint256",
              "name": "tokenId",
              "type": "uint256"
            },
            {
              "internalType": "uint256",
              "name": "value",
              "type": "uint256"
            },
            {
              "internalType": "uint256",
              "name": "gas",
              "type": "uint256"
            },
            {
              "internalType": "uint256",
              "name": "nonce",
              "type": "uint256"
            },
            {
              "internalType": "bytes",
              "name": "data",
              "type": "bytes"
            }
          ],
          "internalType": "struct IForwardRequest.ERC721ForwardRequest",
          "name": "req",
          "type": "tuple"
        },
        {
          "internalType": "bytes",
          "name": "signature",
          "type": "bytes"
        }
      ],
      "name": "verify",
      "outputs": [
        {
          "internalType": "bool",
          "name": "",
          "type": "bool"
        }
      ],
      "stateMutability": "view",
      "type": "function"
    },
    {
      "inputs": [
        {
          "components": [
            {
              "internalType": "address",
              "name": "from",
              "type": "address"
            },
            {
              "internalType": "address",
              "name": "authorizer",
              "type": "address"
            },
            {
              "internalType": "address",
              "name": "to",
              "type": "address"
            },
            {
              "internalType": "address",
              "name": "nftContract",
              "type": "address"
            },
            {
              "internalType": "uint256",
              "name": "nftNonce",
              "type": "uint256"
            },
            {
              "internalType": "uint256",
              "name": "tokenId",
              "type": "uint256"
            },
            {
              "internalType": "uint256",
              "name": "value",
              "type": "uint256"
            },
            {
              "internalType": "uint256",
              "name": "gas",
              "type": "uint256"
            },
            {
              "internalType": "uint256",
              "name": "nonce",
              "type": "uint256"
            },
            {
              "internalType": "bytes",
              "name": "data",
              "type": "bytes"
            }
          ],
          "internalType": "struct IForwardRequest.ERC721ForwardRequest",
          "name": "req",
          "type": "tuple"
        },
        {
          "internalType": "bytes",
          "name": "signature",
          "type": "bytes"
        }
      ],
      "name": "verifyOwnershipProof",
      "outputs": [
        {
          "internalType": "bool",
          "name": "",
          "type": "bool"
        }
      ],
      "stateMutability": "view",
      "type": "function"
    }
  ],
  "transactionHash": "0xdec79d58f4e3c25381d223aabe9c1a6b78bdb3c0d1363ea48aafbee724ed06a7",
  "args": [
    [
      "https://middleware.nfight.xyz"
    ]
  ],
  "solcInputHash": "906e251cfe044c858a7be1747c8b872c",
  "bytecode": "0x6101206040523480156200001257600080fd5b506040516200281b3803806200281b8339810160408190526200003591620003ff565b604080518082018252601081526f272334b3b43a23b0b9a9ba30ba34b7b760811b6020808301918252835180850185526005815264302e302e3160d81b90820152825190912060c08181527fae209a0b48f21c054280f2455d32cf309387644879d9acbd8ffc19916381188560e08190524660a081815287517f36c25de3e541d5d970f66e4210d728721220fff5c077cc6cd008b3a0c62adab7818801819052818a01969096526060810193909352306080808501919091528382019290925287518084039091018152919092019095528451949092019390932090526101009190915281620001276000336200019d565b62000142600080516020620027fb833981519152336200019d565b600180546001600160a01b031916331790558051620001699060059060208401906200024d565b506200017b915060009050336200019d565b62000196600080516020620027fb833981519152336200019d565b5062000588565b620001a98282620001ad565b5050565b6000828152602081815260408083206001600160a01b038516845290915290205460ff16620001a9576000828152602081815260408083206001600160a01b03851684529091529020805460ff19166001179055620002093390565b6001600160a01b0316816001600160a01b0316837f2f8788117e7eff1d82e926ec794901d17c78024a50270940304540a733656f0d60405160405180910390a45050565b8280548282559060005260206000209081019282156200029f579160200282015b828111156200029f57825180516200028e918491602090910190620002b1565b50916020019190600101906200026e565b50620002ad9291506200033c565b5090565b828054620002bf906200054b565b90600052602060002090601f016020900481019282620002e357600085556200032e565b82601f10620002fe57805160ff19168380011785556200032e565b828001600101855582156200032e579182015b828111156200032e57825182559160200191906001019062000311565b50620002ad9291506200035d565b80821115620002ad57600062000353828262000374565b506001016200033c565b5b80821115620002ad57600081556001016200035e565b50805462000382906200054b565b6000825580601f1062000393575050565b601f016020900490600052602060002090810190620003b391906200035d565b50565b634e487b7160e01b600052604160045260246000fd5b604051601f8201601f191681016001600160401b0381118282101715620003f757620003f7620003b6565b604052919050565b600060208083850312156200041357600080fd5b82516001600160401b03808211156200042b57600080fd5b8185019150601f86818401126200044157600080fd5b825182811115620004565762000456620003b6565b8060051b62000467868201620003cc565b918252848101860191868101908a8411156200048257600080fd5b87870192505b838310156200053d57825186811115620004a25760008081fd5b8701603f81018c13620004b55760008081fd5b8881015187811115620004cc57620004cc620003b6565b620004df818801601f19168b01620003cc565b81815260408e81848601011115620004f75760008081fd5b60005b8381101562000517578481018201518382018e01528c01620004fa565b83811115620005295760008d85850101525b505084525050918701919087019062000488565b9a9950505050505050505050565b600181811c908216806200056057607f821691505b602082108114156200058257634e487b7160e01b600052602260045260246000fd5b50919050565b60805160a05160c05160e0516101005161222e620005cd6000396000611673015260006116c20152600061169d015260006116210152600061164a015261222e6000f3fe6080604052600436106101355760003560e01c806384bb5a43116100ab578063a217fddf1161006f578063a217fddf1461040a578063be0fb87e1461041f578063d547741f14610434578063dbf0eeef14610454578063f2cde3ef14610467578063ffb703ee1461048757600080fd5b806384bb5a43146103025780638c8e13b9146103225780638e9a75d2146103aa57806391d14854146103ca5780639ddd61d6146103ea57600080fd5b80633408e470116100fd5780633408e4701461022d57806336568abe146102405780634d20796c14610260578063745125fc1461028157806375b238fc146102a1578063796676be146102d557600080fd5b806301ffc9a71461013a57806312ce42fd1461016f578063248a9ca3146101975780632d0335ab146101d55780632f2ff15d1461020b575b600080fd5b34801561014657600080fd5b5061015a610155366004611829565b6104a7565b60405190151581526020015b60405180910390f35b34801561017b57600080fd5b506001546040516001600160a01b039091168152602001610166565b3480156101a357600080fd5b506101c76101b2366004611853565b60009081526020819052604090206001015490565b604051908152602001610166565b3480156101e157600080fd5b506101c76101f0366004611888565b6001600160a01b031660009081526003602052604090205490565b34801561021757600080fd5b5061022b6102263660046118a3565b6104de565b005b34801561023957600080fd5b50466101c7565b34801561024c57600080fd5b5061022b61025b3660046118a3565b610509565b61027361026e366004611911565b61058c565b6040516101669291906119db565b34801561028d57600080fd5b5061022b61029c366004611911565b610734565b3480156102ad57600080fd5b506101c77fa49807205ce4d355092ef5a8a18f56e8913cf4a201fbe287825b095693c2177581565b3480156102e157600080fd5b506102f56102f0366004611853565b610893565b60405161016691906119f6565b34801561030e57600080fd5b5061015a61031d366004611911565b61093f565b34801561032e57600080fd5b5061038661033d366004611888565b604080518082018252600080825260209182018190526001600160a01b039384168152600282528290208251808401909352805490931682526001909201549181019190915290565b6040805182516001600160a01b031681526020928301519281019290925201610166565b3480156103b657600080fd5b5061015a6103c5366004611b99565b610991565b3480156103d657600080fd5b5061015a6103e53660046118a3565b610b08565b3480156103f657600080fd5b506101c7610405366004611bfd565b610b31565b34801561041657600080fd5b506101c7600081565b34801561042b57600080fd5b5061022b610b88565b34801561044057600080fd5b5061022b61044f3660046118a3565b610be5565b610273610462366004611c4b565b610c0b565b34801561047357600080fd5b5061022b610482366004611888565b610e83565b34801561049357600080fd5b5061022b6104a2366004611cb7565b610ecd565b60006001600160e01b03198216637965db0b60e01b14806104d857506301ffc9a760e01b6001600160e01b03198316145b92915050565b6000828152602081905260409020600101546104fa8133610ed7565b6105048383610f3b565b505050565b6001600160a01b038116331461057e5760405162461bcd60e51b815260206004820152602f60248201527f416363657373436f6e74726f6c3a2063616e206f6e6c792072656e6f756e636560448201526e103937b632b9903337b91039b2b63360891b60648201526084015b60405180910390fd5b6105888282610fbf565b5050565b6000606061059b85858561093f565b6106025760405162461bcd60e51b815260206004820152603260248201527f4d696e696d616c466f727761726465723a207369676e617475726520646f6573604482015271081b9bdd081b585d18da081c995c5d595cdd60721b6064820152608401610575565b6106126101008601356001611cf7565b600360006106236020890189611888565b6001600160a01b03166001600160a01b031681526020019081526020016000208190555060008086604001602081019061065d9190611888565b6001600160a01b031660e088013560c089013561067e6101208b018b611d0f565b6000808d60200160208101906106949190611888565b6040516020016106a8959493929190611d56565b60408051601f19818403018152908290526106c291611d8e565b600060405180830381858888f193505050503d8060008114610700576040519150601f19603f3d011682016040523d82523d6000602084013e610705565b606091505b50909250905061071a603f60e0890135611daa565b5a1161072857610728611dcc565b90969095509350505050565b61077c61074084611de2565b83838080601f01602080910402602001604051908101604052809392919081815260200183838082843760009201919091525061102492505050565b15610504573060056107916020860186611888565b600360006107a26020890189611888565b6001600160a01b031681526020810191909152604001600020546107cc6080880160608901611888565b60a0880135600460006107e560808c0160608d01611888565b6001600160a01b0390811682526020808301939093526040918201600090812060a08e8101358352908552908390205483519883169489019490945291870195909552929093166060850152608084015282015260c00160405160208183030381529060405263dbf0eeef60e01b86868660405160200161086893929190611e5d565b60408051601f1981840301815290829052630556f18360e41b82526105759594939291600401611f89565b600581815481106108a357600080fd5b9060005260206000200160009150905080546108be90611f4e565b80601f01602080910402602001604051908101604052809291908181526020018280546108ea90611f4e565b80156109375780601f1061090c57610100808354040283529160200191610937565b820191906000526020600020905b81548152906001019060200180831161091a57829003601f168201915b505050505081565b600061098961094d85611de2565b84848080601f01602080910402602001604051908101604052809392919081815260200183838082843760009201919091525061102492505050565b949350505050565b6020808301516001600160a01b039081166000908152600283526040808220815180830190925280549093168152600190920154928201839052914210610a0c5760405162461bcd60e51b815260206004820152600f60248201526e14d95cdcda5bdb88115e1c1a5c9959608a1b6044820152606401610575565b835181516001600160a01b03908116911614610a625760405162461bcd60e51b815260206004820152601560248201527414da59db995c881b9bdd08185d5d1a1bdc9a5e9959605a1b6044820152606401610575565b6000610adc610a89866020015187610100015188606001518960a001518a60800151610b31565b6040517f19457468657265756d205369676e6564204d6573736167653a0a3332000000006020820152603c8101829052600090605c01604051602081830303815290604052805190602001209050919050565b6001549091506001600160a01b0316610af58286611148565b6001600160a01b03161495945050505050565b6000918252602082815260408084206001600160a01b0393909316845291905290205460ff1690565b604080516001600160a01b03808816602083015291810186905290841660608201526080810183905260a0810182905260009060c00160405160208183030381529060405280519060200120905095945050505050565b604051600162247e0960e11b031981523360048201526000196024820152309063ffb703ee90604401600060405180830381600087803b158015610bcb57600080fd5b505af1158015610bdf573d6000803e3d6000fd5b50505050565b600082815260208190526040902060010154610c018133610ed7565b6105048383610fbf565b600060608180610c1d85870187611b99565b91509150610c618289898080601f01602080910402602001604051908101604052809392919081815260200183838082843760009201919091525061099192505050565b610cd35760405162461bcd60e51b815260206004820152603a60248201527f457373656e7469616c466f727761726465723a206f776e65727368697020707260448201527f6f6f6620646f6573206e6f74206d6174636820726571756573740000000000006064820152608401610575565b610cdd8282611024565b610d465760405162461bcd60e51b815260206004820152603460248201527f457373656e7469616c466f727761726465723a207369676e617475726520646f604482015273195cc81b9bdd081b585d18da081c995c5d595cdd60621b6064820152608401610575565b81516001600160a01b031660009081526003602052604081208054909190610d6d906120c2565b9091555060608201516001600160a01b0316600090815260046020908152604080832060a0860151845290915281208054909190610daa906120c2565b9190508190555060008083604001516001600160a01b03168460e0015160008661012001518760a0015188606001518960200151604051602001610df194939291906120dd565b60408051601f1981840301815290829052610e0b91611d8e565b600060405180830381858888f193505050503d8060008114610e49576040519150601f19603f3d011682016040523d82523d6000602084013e610e4e565b606091505b5091509150603f8460e00151610e649190611daa565b5a11610e7257610e72611dcc565b909450925050505b94509492505050565b7fa49807205ce4d355092ef5a8a18f56e8913cf4a201fbe287825b095693c21775610eae8133610ed7565b600180546001600160a01b0319166001600160a01b0384161790555050565b610588828261116c565b610ee18282610b08565b61058857610ef9816001600160a01b031660146111fe565b610f048360206111fe565b604051602001610f15929190612121565b60408051601f198184030181529082905262461bcd60e51b8252610575916004016119f6565b610f458282610b08565b610588576000828152602081815260408083206001600160a01b03851684529091529020805460ff19166001179055610f7b3390565b6001600160a01b0316816001600160a01b0316837f2f8788117e7eff1d82e926ec794901d17c78024a50270940304540a733656f0d60405160405180910390a45050565b610fc98282610b08565b15610588576000828152602081815260408083206001600160a01b0385168085529252808320805460ff1916905551339285917ff6391f5c32d9c69d2a47ea670b442974b53935d1edc7fd64eb21e047a839171b9190a45050565b600080611105836110ff7fe9020ed6f4388239f345839ee2632ab28a7fc970b20ed7d68dc51ca3e401e8918760400151886000015189602001518a606001518b61010001518c608001518d60a001518e6101200151805190602001206040516020016110e4999897969594939291909889526001600160a01b0397881660208a01529587166040890152938616606088015291909416608086015260a085019390935260c084019290925260e08301919091526101008201526101200190565b604051602081830303815290604052805190602001206113a1565b90611148565b61010085015185516001600160a01b0316600090815260036020526040902054919250148015610989575083516001600160a01b03828116911614949350505050565b600080600061115785856113ef565b915091506111648161145f565b509392505050565b6040518060400160405280836001600160a01b0316815260200182426111929190611cf7565b9052336000818152600260209081526040808320855181546001600160a01b0319166001600160a01b039182161782559590920151600190920191909155518493861692917f1170e4b3e143a792ce7a7af268ecfe7d7b0574438d8040eb89c2bf5b7e6e15d891a45050565b6060600061120d836002612196565b611218906002611cf7565b67ffffffffffffffff81111561123057611230611a09565b6040519080825280601f01601f19166020018201604052801561125a576020820181803683370190505b509050600360fc1b81600081518110611275576112756121b5565b60200101906001600160f81b031916908160001a905350600f60fb1b816001815181106112a4576112a46121b5565b60200101906001600160f81b031916908160001a90535060006112c8846002612196565b6112d3906001611cf7565b90505b600181111561134b576f181899199a1a9b1b9c1cb0b131b232b360811b85600f1660108110611307576113076121b5565b1a60f81b82828151811061131d5761131d6121b5565b60200101906001600160f81b031916908160001a90535060049490941c93611344816121cb565b90506112d6565b50831561139a5760405162461bcd60e51b815260206004820181905260248201527f537472696e67733a20686578206c656e67746820696e73756666696369656e746044820152606401610575565b9392505050565b60006104d86113ae61161d565b8360405161190160f01b6020820152602281018390526042810182905260009060620160405160208183030381529060405280519060200120905092915050565b6000808251604114156114265760208301516040840151606085015160001a61141a87828585611710565b94509450505050611458565b82516040141561145057602083015160408401516114458683836117fa565b935093505050611458565b506000905060025b9250929050565b6000816004811115611473576114736121e2565b141561147c5750565b6001816004811115611490576114906121e2565b14156114de5760405162461bcd60e51b815260206004820152601860248201527f45434453413a20696e76616c6964207369676e617475726500000000000000006044820152606401610575565b60028160048111156114f2576114f26121e2565b14156115405760405162461bcd60e51b815260206004820152601f60248201527f45434453413a20696e76616c6964207369676e6174757265206c656e677468006044820152606401610575565b6003816004811115611554576115546121e2565b14156115ad5760405162461bcd60e51b815260206004820152602260248201527f45434453413a20696e76616c6964207369676e6174757265202773272076616c604482015261756560f01b6064820152608401610575565b60048160048111156115c1576115c16121e2565b141561161a5760405162461bcd60e51b815260206004820152602260248201527f45434453413a20696e76616c6964207369676e6174757265202776272076616c604482015261756560f01b6064820152608401610575565b50565b60007f000000000000000000000000000000000000000000000000000000000000000046141561166c57507f000000000000000000000000000000000000000000000000000000000000000090565b50604080517f00000000000000000000000000000000000000000000000000000000000000006020808301919091527f0000000000000000000000000000000000000000000000000000000000000000828401527f000000000000000000000000000000000000000000000000000000000000000060608301523060808301524660a0808401919091528351808403909101815260c0909201909252805191012090565b6000807f7fffffffffffffffffffffffffffffff5d576e7357a4501ddfe92f46681b20a08311156117475750600090506003610e7a565b8460ff16601b1415801561175f57508460ff16601c14155b156117705750600090506004610e7a565b6040805160008082526020820180845289905260ff881692820192909252606081018690526080810185905260019060a0016020604051602081039080840390855afa1580156117c4573d6000803e3d6000fd5b5050604051601f1901519150506001600160a01b0381166117ed57600060019250925050610e7a565b9660009650945050505050565b6000806001600160ff1b03831660ff84901c601b0161181b87828885611710565b935093505050935093915050565b60006020828403121561183b57600080fd5b81356001600160e01b03198116811461139a57600080fd5b60006020828403121561186557600080fd5b5035919050565b80356001600160a01b038116811461188357600080fd5b919050565b60006020828403121561189a57600080fd5b61139a8261186c565b600080604083850312156118b657600080fd5b823591506118c66020840161186c565b90509250929050565b60008083601f8401126118e157600080fd5b50813567ffffffffffffffff8111156118f957600080fd5b60208301915083602082850101111561145857600080fd5b60008060006040848603121561192657600080fd5b833567ffffffffffffffff8082111561193e57600080fd5b90850190610140828803121561195357600080fd5b9093506020850135908082111561196957600080fd5b50611976868287016118cf565b9497909650939450505050565b60005b8381101561199e578181015183820152602001611986565b83811115610bdf5750506000910152565b600081518084526119c7816020860160208601611983565b601f01601f19169290920160200192915050565b821515815260406020820152600061098960408301846119af565b60208152600061139a60208301846119af565b634e487b7160e01b600052604160045260246000fd5b604051610140810167ffffffffffffffff81118282101715611a4357611a43611a09565b60405290565b600082601f830112611a5a57600080fd5b813567ffffffffffffffff80821115611a7557611a75611a09565b604051601f8301601f19908116603f01168101908282118183101715611a9d57611a9d611a09565b81604052838152866020858801011115611ab657600080fd5b836020870160208301376000602085830101528094505050505092915050565b60006101408284031215611ae957600080fd5b611af1611a1f565b9050611afc8261186c565b8152611b0a6020830161186c565b6020820152611b1b6040830161186c565b6040820152611b2c6060830161186c565b60608201526080820135608082015260a082013560a082015260c082013560c082015260e082013560e08201526101008083013581830152506101208083013567ffffffffffffffff811115611b8157600080fd5b611b8d85828601611a49565b82840152505092915050565b60008060408385031215611bac57600080fd5b823567ffffffffffffffff80821115611bc457600080fd5b611bd086838701611ad6565b93506020850135915080821115611be657600080fd5b50611bf385828601611a49565b9150509250929050565b600080600080600060a08688031215611c1557600080fd5b611c1e8661186c565b945060208601359350611c336040870161186c565b94979396509394606081013594506080013592915050565b60008060008060408587031215611c6157600080fd5b843567ffffffffffffffff80821115611c7957600080fd5b611c85888389016118cf565b90965094506020870135915080821115611c9e57600080fd5b50611cab878288016118cf565b95989497509550505050565b60008060408385031215611cca57600080fd5b611cd38361186c565b946020939093013593505050565b634e487b7160e01b600052601160045260246000fd5b60008219821115611d0a57611d0a611ce1565b500190565b6000808335601e19843603018112611d2657600080fd5b83018035915067ffffffffffffffff821115611d4157600080fd5b60200191503681900382131561145857600080fd5b84868237909301918252606090811b6bffffffffffffffffffffffff19908116602084015292901b9091166034820152604801919050565b60008251611da0818460208701611983565b9190910192915050565b600082611dc757634e487b7160e01b600052601260045260246000fd5b500490565b634e487b7160e01b600052600160045260246000fd5b60006104d83683611ad6565b6000808335601e19843603018112611e0557600080fd5b830160208101925035905067ffffffffffffffff811115611e2557600080fd5b80360383131561145857600080fd5b81835281816020850137506000828201602090810191909152601f909101601f19169091010190565b60408152611e7e60408201611e718661186c565b6001600160a01b03169052565b6000611e8c6020860161186c565b6001600160a01b03166060830152611ea66040860161186c565b6001600160a01b03166080830152611ec06060860161186c565b6001600160a01b03811660a084015250608085013560c083015260a085013560e083015261010060c08601358184015261012060e0870135818501526101408288013581860152611f1382890189611dee565b935091508061016086015250611f2e61018085018383611e34565b9150508281036020840152611f44818587611e34565b9695505050505050565b600181811c90821680611f6257607f821691505b60208210811415611f8357634e487b7160e01b600052602260045260246000fd5b50919050565b600060a0820160018060a01b0388168352602060a08185015281885480845260c08601915060c08160051b870101935060008a8152838120815b8381101561207a5788870360bf1901855281548390600181811c9080831680611fed57607f831692505b8a831081141561200b57634e487b7160e01b88526022600452602488fd5b828c5260208c01818015612026576001811461203757612061565b60ff19861682528c82019650612061565b6000898152602090208a5b8681101561205b57815484820152908501908e01612042565b83019750505b50949b5050978901979490940193505050600101611fc3565b505050505050828103604084015261209281876119af565b6001600160e01b031986166060850152905082810360808401526120b681856119af565b98975050505050505050565b60006000198214156120d6576120d6611ce1565b5060010190565b600085516120ef818460208a01611983565b91909101938452506bffffffffffffffffffffffff19606092831b81166020850152911b166034820152604801919050565b7f416363657373436f6e74726f6c3a206163636f756e7420000000000000000000815260008351612159816017850160208801611983565b7001034b99036b4b9b9b4b733903937b6329607d1b601791840191820152835161218a816028840160208801611983565b01602801949350505050565b60008160001904831182151516156121b0576121b0611ce1565b500290565b634e487b7160e01b600052603260045260246000fd5b6000816121da576121da611ce1565b506000190190565b634e487b7160e01b600052602160045260246000fdfea2646970667358221220d28dcd3886c61005a8bf304201b286be8e68e395ed025a754ce7b429778f94d864736f6c63430008090033a49807205ce4d355092ef5a8a18f56e8913cf4a201fbe287825b095693c21775",
  "devdoc": {
    "kind": "dev",
    "methods": {
      "createMessage(address,uint256,address,uint256,uint256)": {
        "details": "The RPC server uses this view function to create the ownership proof",
        "params": {
          "nftContract": "the mainnet contract address for the NFT being utilized",
          "nftOwner": "the address that currently owns the L1 NFT",
          "nonce": "the meta-transaction nonce for account",
          "tokenId": "the tokenId from nftContract for the NFT being utilized"
        },
        "returns": {
          "_0": "the message _ownershipSigner should sign"
        }
      },
      "executeWithProof(bytes,bytes)": {
        "details": "The RPC call and re-submission should be handled by your Relayer client",
        "params": {
          "extraData": "The unaltered bytes in the OffchainLookup extraData error arg",
          "response": "The unaltered bytes reponse from a call made to an RPC based on OffchainLookup args"
        }
      },
      "getRoleAdmin(bytes32)": {
        "details": "Returns the admin role that controls `role`. See {grantRole} and {revokeRole}. To change a role's admin, use {_setRoleAdmin}."
      },
      "grantRole(bytes32,address)": {
        "details": "Grants `role` to `account`. If `account` had not been already granted `role`, emits a {RoleGranted} event. Requirements: - the caller must have ``role``'s admin role."
      },
      "hasRole(bytes32,address)": {
        "details": "Returns `true` if `account` has been granted `role`."
      },
      "invalidateSession()": {
        "details": "For efficiency in PlaySession persistence and lookup, an EOA must authorize      itself"
      },
      "ownershipSigner()": {
        "returns": {
          "_0": "the ownership proof signer address"
        }
      },
      "preflight((address,address,address,address,uint256,uint256,uint256,uint256,uint256,bytes),bytes)": {
        "details": "Per EIP-3668, a valid signature will cause a revert with useful error params."
      },
      "renounceRole(bytes32,address)": {
        "details": "Revokes `role` from the calling account. Roles are often managed via {grantRole} and {revokeRole}: this function's purpose is to provide a mechanism for accounts to lose their privileges if they are compromised (such as when a trusted device is misplaced). If the calling account had been revoked `role`, emits a {RoleRevoked} event. Requirements: - the caller must be `account`."
      },
      "revokeRole(bytes32,address)": {
        "details": "Revokes `role` from `account`. If `account` had been granted `role`, emits a {RoleRevoked} event. Requirements: - the caller must have ``role``'s admin role."
      },
      "supportsInterface(bytes4)": {
        "details": "See {IERC165-supportsInterface}."
      },
      "verify((address,address,address,address,uint256,uint256,uint256,uint256,uint256,bytes),bytes)": {
        "details": "Useful for transactions where the signer is not using a specific NFT, but values are still required in the signature - use the zero address for nftContract and 0 for tokenId"
      },
      "verifyOwnershipProof((address,address,address,address,uint256,uint256,uint256,uint256,uint256,bytes),bytes)": {
        "details": "Ensures that _ownershipSigner signed a message containing (nftOwner OR authorized address, nonce, nftContract, tokenId)",
        "params": {
          "req": "structured data submitted by EOA making a meta-transaction request",
          "signature": "the signature proof created by the ownership signer EOA"
        }
      }
    },
    "version": 1
  },
  "userdoc": {
    "kind": "user",
    "methods": {
      "createMessage(address,uint256,address,uint256,uint256)": {
        "notice": "Construct message that _ownershipSigner must sign as ownership proof"
      },
      "createSession(address,uint256)": {
        "notice": "Allow `authorized` to use your NFTs in a game for `length` seconds. Your NFTs         will not be held in custody or approved for transfer."
      },
      "executeWithProof(bytes,bytes)": {
        "notice": "Re-submit a valid meta-tx request with trusted proof to execute the transaction."
      },
      "getNonce(address)": {
        "notice": "Get current nonce for EOA"
      },
      "getSession(address)": {
        "notice": "Get current session for Primary EOA"
      },
      "invalidateSession()": {
        "notice": "Stop allowing your current authorized burner address to use your NFTs."
      },
      "ownershipSigner()": {
        "notice": "Get ownershipSigner address"
      },
      "preflight((address,address,address,address,uint256,uint256,uint256,uint256,uint256,bytes),bytes)": {
        "notice": "Submit a meta-tx request and signature to check validity and receive         a response with data useful for fetching a trusted proof per EIP-3668."
      },
      "setOwnershipSigner(address)": {
        "notice": "Change the ownership signer"
      },
      "verify((address,address,address,address,uint256,uint256,uint256,uint256,uint256,bytes),bytes)": {
        "notice": "Submit a meta-tx request where a proof of ownership is not required."
      },
      "verifyOwnershipProof((address,address,address,address,uint256,uint256,uint256,uint256,uint256,bytes),bytes)": {
        "notice": "Verify signed OffchainLookup proof against meta-tx request data"
      }
    },
    "version": 1
  },
  "storageLayout": {
    "storage": [
      {
        "astId": 4063,
        "contract": "contracts/NFightGasStation/NFightGasStation.sol:NFightGasStation",
        "label": "_roles",
        "offset": 0,
        "slot": "0",
        "type": "t_mapping(t_bytes32,t_struct(RoleData)4058_storage)"
      },
      {
        "astId": 11841,
        "contract": "contracts/NFightGasStation/NFightGasStation.sol:NFightGasStation",
        "label": "_ownershipSigner",
        "offset": 0,
        "slot": "1",
        "type": "t_address"
      },
      {
        "astId": 11846,
        "contract": "contracts/NFightGasStation/NFightGasStation.sol:NFightGasStation",
        "label": "_sessions",
        "offset": 0,
        "slot": "2",
        "type": "t_mapping(t_address,t_struct(PlaySession)11830_storage)"
      },
      {
        "astId": 11351,
        "contract": "contracts/NFightGasStation/NFightGasStation.sol:NFightGasStation",
        "label": "_nonces",
        "offset": 0,
        "slot": "3",
        "type": "t_mapping(t_address,t_uint256)"
      },
      {
        "astId": 11357,
        "contract": "contracts/NFightGasStation/NFightGasStation.sol:NFightGasStation",
        "label": "_tokenNonces",
        "offset": 0,
        "slot": "4",
        "type": "t_mapping(t_address,t_mapping(t_uint256,t_uint256))"
      },
      {
        "astId": 11360,
        "contract": "contracts/NFightGasStation/NFightGasStation.sol:NFightGasStation",
        "label": "urls",
        "offset": 0,
        "slot": "5",
        "type": "t_array(t_string_storage)dyn_storage"
      }
    ],
    "types": {
      "t_address": {
        "encoding": "inplace",
        "label": "address",
        "numberOfBytes": "20"
      },
      "t_array(t_string_storage)dyn_storage": {
        "base": "t_string_storage",
        "encoding": "dynamic_array",
        "label": "string[]",
        "numberOfBytes": "32"
      },
      "t_bool": {
        "encoding": "inplace",
        "label": "bool",
        "numberOfBytes": "1"
      },
      "t_bytes32": {
        "encoding": "inplace",
        "label": "bytes32",
        "numberOfBytes": "32"
      },
      "t_mapping(t_address,t_bool)": {
        "encoding": "mapping",
        "key": "t_address",
        "label": "mapping(address => bool)",
        "numberOfBytes": "32",
        "value": "t_bool"
      },
      "t_mapping(t_address,t_mapping(t_uint256,t_uint256))": {
        "encoding": "mapping",
        "key": "t_address",
        "label": "mapping(address => mapping(uint256 => uint256))",
        "numberOfBytes": "32",
        "value": "t_mapping(t_uint256,t_uint256)"
      },
      "t_mapping(t_address,t_struct(PlaySession)11830_storage)": {
        "encoding": "mapping",
        "key": "t_address",
        "label": "mapping(address => struct IForwardRequest.PlaySession)",
        "numberOfBytes": "32",
        "value": "t_struct(PlaySession)11830_storage"
      },
      "t_mapping(t_address,t_uint256)": {
        "encoding": "mapping",
        "key": "t_address",
        "label": "mapping(address => uint256)",
        "numberOfBytes": "32",
        "value": "t_uint256"
      },
      "t_mapping(t_bytes32,t_struct(RoleData)4058_storage)": {
        "encoding": "mapping",
        "key": "t_bytes32",
        "label": "mapping(bytes32 => struct AccessControl.RoleData)",
        "numberOfBytes": "32",
        "value": "t_struct(RoleData)4058_storage"
      },
      "t_mapping(t_uint256,t_uint256)": {
        "encoding": "mapping",
        "key": "t_uint256",
        "label": "mapping(uint256 => uint256)",
        "numberOfBytes": "32",
        "value": "t_uint256"
      },
      "t_string_storage": {
        "encoding": "bytes",
        "label": "string",
        "numberOfBytes": "32"
      },
      "t_struct(PlaySession)11830_storage": {
        "encoding": "inplace",
        "label": "struct IForwardRequest.PlaySession",
        "members": [
          {
            "astId": 11827,
            "contract": "contracts/NFightGasStation/NFightGasStation.sol:NFightGasStation",
            "label": "authorized",
            "offset": 0,
            "slot": "0",
            "type": "t_address"
          },
          {
            "astId": 11829,
            "contract": "contracts/NFightGasStation/NFightGasStation.sol:NFightGasStation",
            "label": "expiresAt",
            "offset": 0,
            "slot": "1",
            "type": "t_uint256"
          }
        ],
        "numberOfBytes": "64"
      },
      "t_struct(RoleData)4058_storage": {
        "encoding": "inplace",
        "label": "struct AccessControl.RoleData",
        "members": [
          {
            "astId": 4055,
            "contract": "contracts/NFightGasStation/NFightGasStation.sol:NFightGasStation",
            "label": "members",
            "offset": 0,
            "slot": "0",
            "type": "t_mapping(t_address,t_bool)"
          },
          {
            "astId": 4057,
            "contract": "contracts/NFightGasStation/NFightGasStation.sol:NFightGasStation",
            "label": "adminRole",
            "offset": 0,
            "slot": "1",
            "type": "t_bytes32"
          }
        ],
        "numberOfBytes": "64"
      },
      "t_uint256": {
        "encoding": "inplace",
        "label": "uint256",
        "numberOfBytes": "32"
      }
    }
  }
}