{
  "address": "0x3d6f666B78145616c618d8124f2D3b249774f657",
  "abi": [
    {
      "inputs": [
        {
          "internalType": "address",
          "name": "trustedForwarder",
          "type": "address"
        },
        {
          "internalType": "address",
          "name": "_nFight",
          "type": "address"
        }
      ],
      "stateMutability": "nonpayable",
      "type": "constructor"
    },
    {
      "anonymous": false,
      "inputs": [
        {
          "indexed": true,
          "internalType": "address",
          "name": "owner",
          "type": "address"
        },
        {
          "indexed": true,
          "internalType": "address",
          "name": "approved",
          "type": "address"
        },
        {
          "indexed": true,
          "internalType": "uint256",
          "name": "tokenId",
          "type": "uint256"
        }
      ],
      "name": "Approval",
      "type": "event"
    },
    {
      "anonymous": false,
      "inputs": [
        {
          "indexed": true,
          "internalType": "address",
          "name": "owner",
          "type": "address"
        },
        {
          "indexed": true,
          "internalType": "address",
          "name": "operator",
          "type": "address"
        },
        {
          "indexed": false,
          "internalType": "bool",
          "name": "approved",
          "type": "bool"
        }
      ],
      "name": "ApprovalForAll",
      "type": "event"
    },
    {
      "anonymous": false,
      "inputs": [
        {
          "indexed": true,
          "internalType": "address",
          "name": "previousOwner",
          "type": "address"
        },
        {
          "indexed": true,
          "internalType": "address",
          "name": "newOwner",
          "type": "address"
        }
      ],
      "name": "OwnershipTransferred",
      "type": "event"
    },
    {
      "anonymous": false,
      "inputs": [
        {
          "indexed": true,
          "internalType": "address",
          "name": "from",
          "type": "address"
        },
        {
          "indexed": true,
          "internalType": "address",
          "name": "to",
          "type": "address"
        },
        {
          "indexed": true,
          "internalType": "uint256",
          "name": "tokenId",
          "type": "uint256"
        }
      ],
      "name": "Transfer",
      "type": "event"
    },
    {
      "inputs": [
        {
          "internalType": "address",
          "name": "to",
          "type": "address"
        },
        {
          "internalType": "uint256",
          "name": "tokenId",
          "type": "uint256"
        }
      ],
      "name": "approve",
      "outputs": [],
      "stateMutability": "nonpayable",
      "type": "function"
    },
    {
      "inputs": [
        {
          "internalType": "address",
          "name": "owner",
          "type": "address"
        }
      ],
      "name": "balanceOf",
      "outputs": [
        {
          "internalType": "uint256",
          "name": "",
          "type": "uint256"
        }
      ],
      "stateMutability": "view",
      "type": "function"
    },
    {
      "inputs": [
        {
          "internalType": "uint256",
          "name": "",
          "type": "uint256"
        }
      ],
      "name": "dnas",
      "outputs": [
        {
          "internalType": "string",
          "name": "",
          "type": "string"
        }
      ],
      "stateMutability": "view",
      "type": "function"
    },
    {
      "inputs": [
        {
          "internalType": "uint256",
          "name": "tokenId",
          "type": "uint256"
        }
      ],
      "name": "getApproved",
      "outputs": [
        {
          "internalType": "address",
          "name": "",
          "type": "address"
        }
      ],
      "stateMutability": "view",
      "type": "function"
    },
    {
      "inputs": [
        {
          "internalType": "address",
          "name": "owner",
          "type": "address"
        },
        {
          "internalType": "address",
          "name": "operator",
          "type": "address"
        }
      ],
      "name": "isApprovedForAll",
      "outputs": [
        {
          "internalType": "bool",
          "name": "",
          "type": "bool"
        }
      ],
      "stateMutability": "view",
      "type": "function"
    },
    {
      "inputs": [
        {
          "internalType": "address",
          "name": "forwarder",
          "type": "address"
        }
      ],
      "name": "isTrustedForwarder",
      "outputs": [
        {
          "internalType": "bool",
          "name": "",
          "type": "bool"
        }
      ],
      "stateMutability": "view",
      "type": "function"
    },
    {
      "inputs": [
        {
          "internalType": "string",
          "name": "dna",
          "type": "string"
        }
      ],
      "name": "mint",
      "outputs": [],
      "stateMutability": "nonpayable",
      "type": "function"
    },
    {
      "inputs": [],
      "name": "nFight",
      "outputs": [
        {
          "internalType": "contract INFight",
          "name": "",
          "type": "address"
        }
      ],
      "stateMutability": "view",
      "type": "function"
    },
    {
      "inputs": [],
      "name": "name",
      "outputs": [
        {
          "internalType": "string",
          "name": "",
          "type": "string"
        }
      ],
      "stateMutability": "view",
      "type": "function"
    },
    {
      "inputs": [],
      "name": "owner",
      "outputs": [
        {
          "internalType": "address",
          "name": "",
          "type": "address"
        }
      ],
      "stateMutability": "view",
      "type": "function"
    },
    {
      "inputs": [
        {
          "internalType": "uint256",
          "name": "tokenId",
          "type": "uint256"
        }
      ],
      "name": "ownerOf",
      "outputs": [
        {
          "internalType": "address",
          "name": "",
          "type": "address"
        }
      ],
      "stateMutability": "view",
      "type": "function"
    },
    {
      "inputs": [],
      "name": "renounceOwnership",
      "outputs": [],
      "stateMutability": "nonpayable",
      "type": "function"
    },
    {
      "inputs": [
        {
          "internalType": "address",
          "name": "from",
          "type": "address"
        },
        {
          "internalType": "address",
          "name": "to",
          "type": "address"
        },
        {
          "internalType": "uint256",
          "name": "tokenId",
          "type": "uint256"
        }
      ],
      "name": "safeTransferFrom",
      "outputs": [],
      "stateMutability": "nonpayable",
      "type": "function"
    },
    {
      "inputs": [
        {
          "internalType": "address",
          "name": "from",
          "type": "address"
        },
        {
          "internalType": "address",
          "name": "to",
          "type": "address"
        },
        {
          "internalType": "uint256",
          "name": "tokenId",
          "type": "uint256"
        },
        {
          "internalType": "bytes",
          "name": "_data",
          "type": "bytes"
        }
      ],
      "name": "safeTransferFrom",
      "outputs": [],
      "stateMutability": "nonpayable",
      "type": "function"
    },
    {
      "inputs": [
        {
          "internalType": "address",
          "name": "operator",
          "type": "address"
        },
        {
          "internalType": "bool",
          "name": "approved",
          "type": "bool"
        }
      ],
      "name": "setApprovalForAll",
      "outputs": [],
      "stateMutability": "nonpayable",
      "type": "function"
    },
    {
      "inputs": [
        {
          "internalType": "bytes4",
          "name": "interfaceId",
          "type": "bytes4"
        }
      ],
      "name": "supportsInterface",
      "outputs": [
        {
          "internalType": "bool",
          "name": "",
          "type": "bool"
        }
      ],
      "stateMutability": "view",
      "type": "function"
    },
    {
      "inputs": [],
      "name": "symbol",
      "outputs": [
        {
          "internalType": "string",
          "name": "",
          "type": "string"
        }
      ],
      "stateMutability": "view",
      "type": "function"
    },
    {
      "inputs": [
        {
          "internalType": "uint256",
          "name": "tokenId",
          "type": "uint256"
        }
      ],
      "name": "tokenURI",
      "outputs": [
        {
          "internalType": "string",
          "name": "",
          "type": "string"
        }
      ],
      "stateMutability": "view",
      "type": "function"
    },
    {
      "inputs": [
        {
          "internalType": "address",
          "name": "from",
          "type": "address"
        },
        {
          "internalType": "address",
          "name": "to",
          "type": "address"
        },
        {
          "internalType": "uint256",
          "name": "tokenId",
          "type": "uint256"
        }
      ],
      "name": "transferFrom",
      "outputs": [],
      "stateMutability": "nonpayable",
      "type": "function"
    },
    {
      "inputs": [
        {
          "internalType": "address",
          "name": "newOwner",
          "type": "address"
        }
      ],
      "name": "transferOwnership",
      "outputs": [],
      "stateMutability": "nonpayable",
      "type": "function"
    }
  ],
  "transactionHash": "0xd940f90bd37b56ba498c518c30986d2cbbba715ab9c3c3f7ff7d217d9ac3cf51",
  "args": [
    "0x8a3693cBd71d77D4341c6a2d088DC03f22EA556a",
    "0x5f1469b4C22ced82Fca287c0222c6EE6b82fb8de"
  ],
  "solcInputHash": "906e251cfe044c858a7be1747c8b872c",
  "bytecode": "0x60806040523480156200001157600080fd5b506040516200257138038062002571833981016040819052620000349162000265565b6040805180820182526012815271536f756c626f756e6457726173736c65727360701b6020808301918252835180850190945260078452665342575241535360c81b9084015281518593916200008e9160009190620001a2565b508051620000a4906001906020840190620001a2565b505050620000c1620000bb620000f760201b60201c565b62000113565b600780546001600160a01b039283166001600160a01b031991821617909155600a805493909216921691909117905550620002da565b60006200010e6200016560201b62000af61760201c565b905090565b600680546001600160a01b038381166001600160a01b0319831681179093556040519116919082907f8be0079c531659141344cd1fd0a4f28419497f9722a3daafe3b4186f6b6457e090600090a35050565b6007546000906001600160a01b031633141562000189575060131936013560601c90565b6200010e6200019e60201b62000b231760201c565b3390565b828054620001b0906200029d565b90600052602060002090601f016020900481019282620001d457600085556200021f565b82601f10620001ef57805160ff19168380011785556200021f565b828001600101855582156200021f579182015b828111156200021f57825182559160200191906001019062000202565b506200022d92915062000231565b5090565b5b808211156200022d576000815560010162000232565b80516001600160a01b03811681146200026057600080fd5b919050565b600080604083850312156200027957600080fd5b620002848362000248565b9150620002946020840162000248565b90509250929050565b600181811c90821680620002b257607f821691505b60208210811415620002d457634e487b7160e01b600052602260045260246000fd5b50919050565b61228780620002ea6000396000f3fe608060405234801561001057600080fd5b506004361061012c5760003560e01c8063715018a6116100ad578063c87b56dd11610071578063c87b56dd14610284578063d85d3d2714610297578063dca721d5146102aa578063e985e9c5146102bd578063f2fde38b146102f957600080fd5b8063715018a61461023d5780638da5cb5b1461024557806395d89b4114610256578063a22cb4651461025e578063b88d4fde1461027157600080fd5b806334e80ea3116100f457806334e80ea3146101c157806342842e0e146101d4578063572b6c05146101e75780636352211e1461020957806370a082311461021c57600080fd5b806301ffc9a71461013157806306fdde0314610159578063081812fc1461016e578063095ea7b31461019957806323b872dd146101ae575b600080fd5b61014461013f36600461192a565b61030c565b60405190151581526020015b60405180910390f35b61016161035e565b604051610150919061199f565b61018161017c3660046119b2565b6103f0565b6040516001600160a01b039091168152602001610150565b6101ac6101a73660046119e7565b61048a565b005b6101ac6101bc366004611a11565b6105b2565b6101616101cf3660046119b2565b6105ea565b6101ac6101e2366004611a11565b610684565b6101446101f5366004611a4d565b6007546001600160a01b0391821691161490565b6101816102173660046119b2565b61069f565b61022f61022a366004611a4d565b610716565b604051908152602001610150565b6101ac61079d565b6006546001600160a01b0316610181565b610161610822565b6101ac61026c366004611a68565b610831565b6101ac61027f366004611aba565b610847565b6101616102923660046119b2565b610886565b6101ac6102a5366004611b96565b6108e8565b600a54610181906001600160a01b031681565b6101446102cb366004611c08565b6001600160a01b03918216600090815260056020908152604080832093909416825291909152205460ff1690565b6101ac610307366004611a4d565b610a0c565b60006001600160e01b031982166380ac58cd60e01b148061033d57506001600160e01b03198216635b5e139f60e01b145b8061035857506301ffc9a760e01b6001600160e01b03198316145b92915050565b60606000805461036d90611c3b565b80601f016020809104026020016040519081016040528092919081815260200182805461039990611c3b565b80156103e65780601f106103bb576101008083540402835291602001916103e6565b820191906000526020600020905b8154815290600101906020018083116103c957829003601f168201915b5050505050905090565b6000818152600260205260408120546001600160a01b031661046e5760405162461bcd60e51b815260206004820152602c60248201527f4552433732313a20617070726f76656420717565727920666f72206e6f6e657860448201526b34b9ba32b73a103a37b5b2b760a11b60648201526084015b60405180910390fd5b506000908152600460205260409020546001600160a01b031690565b60006104958261069f565b9050806001600160a01b0316836001600160a01b031614156105035760405162461bcd60e51b815260206004820152602160248201527f4552433732313a20617070726f76616c20746f2063757272656e74206f776e656044820152603960f91b6064820152608401610465565b806001600160a01b0316610515610b27565b6001600160a01b031614806105315750610531816102cb610b27565b6105a35760405162461bcd60e51b815260206004820152603860248201527f4552433732313a20617070726f76652063616c6c6572206973206e6f74206f7760448201527f6e6572206e6f7220617070726f76656420666f7220616c6c00000000000000006064820152608401610465565b6105ad8383610b31565b505050565b6105c36105bd610b27565b82610b9f565b6105df5760405162461bcd60e51b815260040161046590611c76565b6105ad838383610c96565b6009602052600090815260409020805461060390611c3b565b80601f016020809104026020016040519081016040528092919081815260200182805461062f90611c3b565b801561067c5780601f106106515761010080835404028352916020019161067c565b820191906000526020600020905b81548152906001019060200180831161065f57829003601f168201915b505050505081565b6105ad83838360405180602001604052806000815250610847565b6000818152600260205260408120546001600160a01b0316806103585760405162461bcd60e51b815260206004820152602960248201527f4552433732313a206f776e657220717565727920666f72206e6f6e657869737460448201526832b73a103a37b5b2b760b91b6064820152608401610465565b60006001600160a01b0382166107815760405162461bcd60e51b815260206004820152602a60248201527f4552433732313a2062616c616e636520717565727920666f7220746865207a65604482015269726f206164647265737360b01b6064820152608401610465565b506001600160a01b031660009081526003602052604090205490565b6107a5610b27565b6001600160a01b03166107c06006546001600160a01b031690565b6001600160a01b0316146108165760405162461bcd60e51b815260206004820181905260248201527f4f776e61626c653a2063616c6c6572206973206e6f7420746865206f776e65726044820152606401610465565b6108206000610e41565b565b60606001805461036d90611c3b565b61084361083c610b27565b8383610e93565b5050565b610858610852610b27565b83610b9f565b6108745760405162461bcd60e51b815260040161046590611c76565b61088084848484610f62565b50505050565b60606108c261089483610f95565b61089d8461107a565b6040516020016108ae929190611cc7565b6040516020818303038152906040526112e3565b6040516020016108d29190611dbd565b6040516020818303038152906040529050919050565b6108f361022a610b27565b156109385760405162461bcd60e51b815260206004820152601560248201527414d95b99195c88185b1c9958591e481b5a5b9d1959605a1b6044820152606401610465565b6008805490600061094883611e18565b9091555050600854600090815260096020526040902061096990838361187b565b5061097d610975610b27565b600854611449565b600a546008546001600160a01b0390911690639747e4e890309061099f610b27565b60405160e085901b6001600160e01b03191681526001600160a01b03938416600482015260248101929092529091166044820152606401600060405180830381600087803b1580156109f057600080fd5b505af1158015610a04573d6000803e3d6000fd5b505050505050565b610a14610b27565b6001600160a01b0316610a2f6006546001600160a01b031690565b6001600160a01b031614610a855760405162461bcd60e51b815260206004820181905260248201527f4f776e61626c653a2063616c6c6572206973206e6f7420746865206f776e65726044820152606401610465565b6001600160a01b038116610aea5760405162461bcd60e51b815260206004820152602660248201527f4f776e61626c653a206e6577206f776e657220697320746865207a65726f206160448201526564647265737360d01b6064820152608401610465565b610af381610e41565b50565b6007546000906001600160a01b0316331415610b19575060131936013560601c90565b503390565b905090565b3390565b6000610b1e610af6565b600081815260046020526040902080546001600160a01b0319166001600160a01b0384169081179091558190610b668261069f565b6001600160a01b03167f8c5be1e5ebec7d5bd14f71427d1e84f3dd0314c0f7b2291e5b200ac8c7c3b92560405160405180910390a45050565b6000818152600260205260408120546001600160a01b0316610c185760405162461bcd60e51b815260206004820152602c60248201527f4552433732313a206f70657261746f7220717565727920666f72206e6f6e657860448201526b34b9ba32b73a103a37b5b2b760a11b6064820152608401610465565b6000610c238361069f565b9050806001600160a01b0316846001600160a01b03161480610c5e5750836001600160a01b0316610c53846103f0565b6001600160a01b0316145b80610c8e57506001600160a01b0380821660009081526005602090815260408083209388168352929052205460ff165b949350505050565b826001600160a01b0316610ca98261069f565b6001600160a01b031614610d115760405162461bcd60e51b815260206004820152602960248201527f4552433732313a207472616e73666572206f6620746f6b656e2074686174206960448201526839903737ba1037bbb760b91b6064820152608401610465565b6001600160a01b038216610d735760405162461bcd60e51b8152602060048201526024808201527f4552433732313a207472616e7366657220746f20746865207a65726f206164646044820152637265737360e01b6064820152608401610465565b610d7e838383611597565b610d89600082610b31565b6001600160a01b0383166000908152600360205260408120805460019290610db2908490611e33565b90915550506001600160a01b0382166000908152600360205260408120805460019290610de0908490611e4a565b909155505060008181526002602052604080822080546001600160a01b0319166001600160a01b0386811691821790925591518493918716917fddf252ad1be2c89b69c2b068fc378daa952ba7f163c4a11628f55a4df523b3ef91a4505050565b600680546001600160a01b038381166001600160a01b0319831681179093556040519116919082907f8be0079c531659141344cd1fd0a4f28419497f9722a3daafe3b4186f6b6457e090600090a35050565b816001600160a01b0316836001600160a01b03161415610ef55760405162461bcd60e51b815260206004820152601960248201527f4552433732313a20617070726f766520746f2063616c6c6572000000000000006044820152606401610465565b6001600160a01b03838116600081815260056020908152604080832094871680845294825291829020805460ff191686151590811790915591519182527f17307eab39ab6107e8899845ad3d59bd9653f200f220920489ca2b5937696c31910160405180910390a3505050565b610f6d848484610c96565b610f7984848484611612565b6108805760405162461bcd60e51b815260040161046590611e62565b6000818152600260205260409020546060906001600160a01b03166110145760405162461bcd60e51b815260206004820152602f60248201527f4552433732314d657461646174613a2055524920717565727920666f72206e6f60448201526e3732bc34b9ba32b73a103a37b5b2b760891b6064820152608401610465565b600061101e611726565b9050600081511161103e5760405180602001604052806000815250611073565b8060096000858152602001908152602001600020604051602001611063929190611eb4565b6040516020818303038152906040525b9392505050565b600a546040516347b50ed960e11b815230600482015260248101839052606091600091829182918291829182916001600160a01b031690638f6a1db29060440160c06040518083038186803b1580156110d257600080fd5b505afa1580156110e6573d6000803e3d6000fd5b505050506040513d601f19601f8201168201806040525081019061110a9190611f79565b95509550955095509550955061115c6040518060400160405280600a81526020016920b3b3b932b9b9b4b7b760b11b81525085604051806040016040528060018152602001600b60fa1b815250611746565b6111a16040518060400160405280600981526020016841776172656e65737360b81b81525083604051806040016040528060018152602001600b60fa1b815250611746565b6111ea6040518060400160405280600d81526020016c2232ba32b936b4b730ba34b7b760991b81525086604051806040016040528060018152602001600b60fa1b815250611746565b61122b604051806040016040528060058152602001642837bbb2b960d91b8152508a604051806040016040528060018152602001600b60fa1b815250611746565b6112716040518060400160405280600a815260200169526573696c69656e636560b01b81525087604051806040016040528060018152602001600b60fa1b815250611746565b6112b26040518060400160405280600581526020016414dc19595960da1b8152508b604051806040016040528060018152602001605d60f81b815250611746565b6040516020016112c796959493929190611fc3565b6040516020818303038152906040529650505050505050919050565b805160609080611303575050604080516020810190915260008152919050565b60006003611312836002611e4a565b61131c919061206b565b61132790600461207f565b90506000611336826020611e4a565b67ffffffffffffffff81111561134e5761134e611aa4565b6040519080825280601f01601f191660200182016040528015611378576020820181803683370190505b5090506000604051806060016040528060408152602001612212604091399050600181016020830160005b86811015611404576003818a01810151603f601282901c8116860151600c83901c8216870151600684901c831688015192909316870151600891821b60ff94851601821b92841692909201901b91160160e01b8352600490920191016113a3565b50600386066001811461141e576002811461142f5761143b565b613d3d60f01b60011983015261143b565b603d60f81b6000198301525b505050918152949350505050565b6001600160a01b03821661149f5760405162461bcd60e51b815260206004820181905260248201527f4552433732313a206d696e7420746f20746865207a65726f20616464726573736044820152606401610465565b6000818152600260205260409020546001600160a01b0316156115045760405162461bcd60e51b815260206004820152601c60248201527f4552433732313a20746f6b656e20616c7265616479206d696e746564000000006044820152606401610465565b61151060008383611597565b6001600160a01b0382166000908152600360205260408120805460019290611539908490611e4a565b909155505060008181526002602052604080822080546001600160a01b0319166001600160a01b03861690811790915590518392907fddf252ad1be2c89b69c2b068fc378daa952ba7f163c4a11628f55a4df523b3ef908290a45050565b6001600160a01b03831615806115b457506001600160a01b038216155b6105ad5760405162461bcd60e51b815260206004820152602960248201527f536f756c626f756e642057726173736c6572732063616e6e6f74206265207472604482015268185b9cd9995c9c995960ba1b6064820152608401610465565b60006001600160a01b0384163b1561171b57836001600160a01b031663150b7a0261163b610b27565b8786866040518563ffffffff1660e01b815260040161165d949392919061209e565b602060405180830381600087803b15801561167757600080fd5b505af19250505080156116a7575060408051601f3d908101601f191682019092526116a4918101906120db565b60015b611701573d8080156116d5576040519150601f19603f3d011682016040523d82523d6000602084013e6116da565b606091505b5080516116f95760405162461bcd60e51b815260040161046590611e62565b805181602001fd5b6001600160e01b031916630a85bd0160e11b149050610c8e565b506001949350505050565b60606040518060600160405280603681526020016121dc60369139905090565b6060836117528461177d565b83604051602001611765939291906120f8565b60405160208183030381529060405290509392505050565b6060816117a15750506040805180820190915260018152600360fc1b602082015290565b8160005b81156117cb57806117b581611e18565b91506117c49050600a8361206b565b91506117a5565b60008167ffffffffffffffff8111156117e6576117e6611aa4565b6040519080825280601f01601f191660200182016040528015611810576020820181803683370190505b5090505b8415610c8e57611825600183611e33565b9150611832600a866121b1565b61183d906030611e4a565b60f81b818381518110611852576118526121c5565b60200101906001600160f81b031916908160001a905350611874600a8661206b565b9450611814565b82805461188790611c3b565b90600052602060002090601f0160209004810192826118a957600085556118ef565b82601f106118c25782800160ff198235161785556118ef565b828001600101855582156118ef579182015b828111156118ef5782358255916020019190600101906118d4565b506118fb9291506118ff565b5090565b5b808211156118fb5760008155600101611900565b6001600160e01b031981168114610af357600080fd5b60006020828403121561193c57600080fd5b813561107381611914565b60005b8381101561196257818101518382015260200161194a565b838111156108805750506000910152565b6000815180845261198b816020860160208601611947565b601f01601f19169290920160200192915050565b6020815260006110736020830184611973565b6000602082840312156119c457600080fd5b5035919050565b80356001600160a01b03811681146119e257600080fd5b919050565b600080604083850312156119fa57600080fd5b611a03836119cb565b946020939093013593505050565b600080600060608486031215611a2657600080fd5b611a2f846119cb565b9250611a3d602085016119cb565b9150604084013590509250925092565b600060208284031215611a5f57600080fd5b611073826119cb565b60008060408385031215611a7b57600080fd5b611a84836119cb565b915060208301358015158114611a9957600080fd5b809150509250929050565b634e487b7160e01b600052604160045260246000fd5b60008060008060808587031215611ad057600080fd5b611ad9856119cb565b9350611ae7602086016119cb565b925060408501359150606085013567ffffffffffffffff80821115611b0b57600080fd5b818701915087601f830112611b1f57600080fd5b813581811115611b3157611b31611aa4565b604051601f8201601f19908116603f01168101908382118183101715611b5957611b59611aa4565b816040528281528a6020848701011115611b7257600080fd5b82602086016020830137600060208483010152809550505050505092959194509250565b60008060208385031215611ba957600080fd5b823567ffffffffffffffff80821115611bc157600080fd5b818501915085601f830112611bd557600080fd5b813581811115611be457600080fd5b866020828501011115611bf657600080fd5b60209290920196919550909350505050565b60008060408385031215611c1b57600080fd5b611c24836119cb565b9150611c32602084016119cb565b90509250929050565b600181811c90821680611c4f57607f821691505b60208210811415611c7057634e487b7160e01b600052602260045260246000fd5b50919050565b60208082526031908201527f4552433732313a207472616e736665722063616c6c6572206973206e6f74206f6040820152701ddb995c881b9bdc88185c1c1c9bdd9959607a1b606082015260800190565b7f7b226e616d65223a22536f756c626f756e642057726173736c6572222c20226481527f65736372697074696f6e223a22536f756c626f756e642057726173736c65727360208201527f2061726520667265652c206e6f6e2d7472616e7366657261626c652057726173604082015268039b632b939971116160bd1b60608201526c1134b6b0b3b2afbab936111d1160991b606982015260008351611d73816076850160208801611947565b6f1116101130ba3a3934b13aba32b9911d60811b6076918401918201528351611da3816086840160208801611947565b607d60f81b60869290910191820152608701949350505050565b7f646174613a6170706c69636174696f6e2f6a736f6e3b6261736536342c000000815260008251611df581601d850160208701611947565b91909101601d0192915050565b634e487b7160e01b600052601160045260246000fd5b6000600019821415611e2c57611e2c611e02565b5060010190565b600082821015611e4557611e45611e02565b500390565b60008219821115611e5d57611e5d611e02565b500190565b60208082526032908201527f4552433732313a207472616e7366657220746f206e6f6e20455243373231526560408201527131b2b4bb32b91034b6b83632b6b2b73a32b960711b606082015260800190565b600083516020611ec78285838901611947565b845491840191600090600181811c9080831680611ee557607f831692505b858310811415611f0357634e487b7160e01b85526022600452602485fd5b808015611f175760018114611f2857611f55565b60ff19851688528388019550611f55565b60008b81526020902060005b85811015611f4d5781548a820152908401908801611f34565b505083880195505b5050505050611f6e81632e706e6760e01b815260040190565b979650505050505050565b60008060008060008060c08789031215611f9257600080fd5b865195506020870151945060408701519350606087015192506080870151915060a087015190509295509295509295565b605b60f81b81526000600188516020611fe182848701838e01611947565b895191850191611ff681858501848e01611947565b895192019161200a81858501848d01611947565b885192019161201e81858501848c01611947565b875192019161203281858501848b01611947565b86519201909201916120478284838901611947565b500198975050505050505050565b634e487b7160e01b600052601260045260246000fd5b60008261207a5761207a612055565b500490565b600081600019048311821515161561209957612099611e02565b500290565b6001600160a01b03858116825284166020820152604081018390526080606082018190526000906120d190830184611973565b9695505050505050565b6000602082840312156120ed57600080fd5b815161107381611914565b7f7b2022646973706c61795f74797065223a20226e756d626572222c20226d617881527f5f76616c7565223a20313030302c202274726169745f74797065223a2022000060208201526000845161215681603e850160208901611947565b6b0111610113b30b63ab2911d160a51b603e91840191820152845161218281604a840160208901611947565b607d60f81b604a929091019182015283516121a481604b840160208801611947565b01604b0195945050505050565b6000826121c0576121c0612055565b500690565b634e487b7160e01b600052603260045260246000fdfe697066733a2f2f516d5566344e47426873684d6f684b546a35556f364c6b5335336373484333576663644554534b4d6e5243354a522f4142434445464748494a4b4c4d4e4f505152535455565758595a6162636465666768696a6b6c6d6e6f707172737475767778797a303132333435363738392b2fa264697066735822122001cddf55425708a25574c8ae0d65fc38daaea377bbcde8c38ee2a58a61f368cb64736f6c63430008090033",
  "devdoc": {
    "kind": "dev",
    "methods": {
      "approve(address,uint256)": {
        "details": "See {IERC721-approve}."
      },
      "balanceOf(address)": {
        "details": "See {IERC721-balanceOf}."
      },
      "getApproved(uint256)": {
        "details": "See {IERC721-getApproved}."
      },
      "isApprovedForAll(address,address)": {
        "details": "See {IERC721-isApprovedForAll}."
      },
      "name()": {
        "details": "See {IERC721Metadata-name}."
      },
      "owner()": {
        "details": "Returns the address of the current owner."
      },
      "ownerOf(uint256)": {
        "details": "See {IERC721-ownerOf}."
      },
      "renounceOwnership()": {
        "details": "Leaves the contract without owner. It will not be possible to call `onlyOwner` functions anymore. Can only be called by the current owner. NOTE: Renouncing ownership will leave the contract without an owner, thereby removing any functionality that is only available to the owner."
      },
      "safeTransferFrom(address,address,uint256)": {
        "details": "See {IERC721-safeTransferFrom}."
      },
      "safeTransferFrom(address,address,uint256,bytes)": {
        "details": "See {IERC721-safeTransferFrom}."
      },
      "setApprovalForAll(address,bool)": {
        "details": "See {IERC721-setApprovalForAll}."
      },
      "supportsInterface(bytes4)": {
        "details": "See {IERC165-supportsInterface}."
      },
      "symbol()": {
        "details": "See {IERC721Metadata-symbol}."
      },
      "tokenURI(uint256)": {
        "details": "See {IERC721Metadata-tokenURI}."
      },
      "transferFrom(address,address,uint256)": {
        "details": "See {IERC721-transferFrom}."
      },
      "transferOwnership(address)": {
        "details": "Transfers ownership of the contract to a new account (`newOwner`). Can only be called by the current owner."
      }
    },
    "version": 1
  },
  "userdoc": {
    "kind": "user",
    "methods": {},
    "version": 1
  },
  "storageLayout": {
    "storage": [
      {
        "astId": 5519,
        "contract": "contracts/SoulboundWrasslers/SoulboundWrasslers.sol:SoulboundWrasslers",
        "label": "_name",
        "offset": 0,
        "slot": "0",
        "type": "t_string_storage"
      },
      {
        "astId": 5521,
        "contract": "contracts/SoulboundWrasslers/SoulboundWrasslers.sol:SoulboundWrasslers",
        "label": "_symbol",
        "offset": 0,
        "slot": "1",
        "type": "t_string_storage"
      },
      {
        "astId": 5525,
        "contract": "contracts/SoulboundWrasslers/SoulboundWrasslers.sol:SoulboundWrasslers",
        "label": "_owners",
        "offset": 0,
        "slot": "2",
        "type": "t_mapping(t_uint256,t_address)"
      },
      {
        "astId": 5529,
        "contract": "contracts/SoulboundWrasslers/SoulboundWrasslers.sol:SoulboundWrasslers",
        "label": "_balances",
        "offset": 0,
        "slot": "3",
        "type": "t_mapping(t_address,t_uint256)"
      },
      {
        "astId": 5533,
        "contract": "contracts/SoulboundWrasslers/SoulboundWrasslers.sol:SoulboundWrasslers",
        "label": "_tokenApprovals",
        "offset": 0,
        "slot": "4",
        "type": "t_mapping(t_uint256,t_address)"
      },
      {
        "astId": 5539,
        "contract": "contracts/SoulboundWrasslers/SoulboundWrasslers.sol:SoulboundWrasslers",
        "label": "_operatorApprovals",
        "offset": 0,
        "slot": "5",
        "type": "t_mapping(t_address,t_mapping(t_address,t_bool))"
      },
      {
        "astId": 4578,
        "contract": "contracts/SoulboundWrasslers/SoulboundWrasslers.sol:SoulboundWrasslers",
        "label": "_owner",
        "offset": 0,
        "slot": "6",
        "type": "t_address"
      },
      {
        "astId": 4683,
        "contract": "contracts/SoulboundWrasslers/SoulboundWrasslers.sol:SoulboundWrasslers",
        "label": "_trustedForwarder",
        "offset": 0,
        "slot": "7",
        "type": "t_address"
      },
      {
        "astId": 14207,
        "contract": "contracts/SoulboundWrasslers/SoulboundWrasslers.sol:SoulboundWrasslers",
        "label": "_tokenId",
        "offset": 0,
        "slot": "8",
        "type": "t_uint256"
      },
      {
        "astId": 14211,
        "contract": "contracts/SoulboundWrasslers/SoulboundWrasslers.sol:SoulboundWrasslers",
        "label": "dnas",
        "offset": 0,
        "slot": "9",
        "type": "t_mapping(t_uint256,t_string_storage)"
      },
      {
        "astId": 14214,
        "contract": "contracts/SoulboundWrasslers/SoulboundWrasslers.sol:SoulboundWrasslers",
        "label": "nFight",
        "offset": 0,
        "slot": "10",
        "type": "t_contract(INFight)10276"
      }
    ],
    "types": {
      "t_address": {
        "encoding": "inplace",
        "label": "address",
        "numberOfBytes": "20"
      },
      "t_bool": {
        "encoding": "inplace",
        "label": "bool",
        "numberOfBytes": "1"
      },
      "t_contract(INFight)10276": {
        "encoding": "inplace",
        "label": "contract INFight",
        "numberOfBytes": "20"
      },
      "t_mapping(t_address,t_bool)": {
        "encoding": "mapping",
        "key": "t_address",
        "label": "mapping(address => bool)",
        "numberOfBytes": "32",
        "value": "t_bool"
      },
      "t_mapping(t_address,t_mapping(t_address,t_bool))": {
        "encoding": "mapping",
        "key": "t_address",
        "label": "mapping(address => mapping(address => bool))",
        "numberOfBytes": "32",
        "value": "t_mapping(t_address,t_bool)"
      },
      "t_mapping(t_address,t_uint256)": {
        "encoding": "mapping",
        "key": "t_address",
        "label": "mapping(address => uint256)",
        "numberOfBytes": "32",
        "value": "t_uint256"
      },
      "t_mapping(t_uint256,t_address)": {
        "encoding": "mapping",
        "key": "t_uint256",
        "label": "mapping(uint256 => address)",
        "numberOfBytes": "32",
        "value": "t_address"
      },
      "t_mapping(t_uint256,t_string_storage)": {
        "encoding": "mapping",
        "key": "t_uint256",
        "label": "mapping(uint256 => string)",
        "numberOfBytes": "32",
        "value": "t_string_storage"
      },
      "t_string_storage": {
        "encoding": "bytes",
        "label": "string",
        "numberOfBytes": "32"
      },
      "t_uint256": {
        "encoding": "inplace",
        "label": "uint256",
        "numberOfBytes": "32"
      }
    }
  }
}